{
	"contracts/1_Storage.sol": {
		"Storage": {
			"abi": [
				{
					"inputs": [],
					"name": "message",
					"outputs": [
						{
							"internalType": "string",
							"name": "",
							"type": "string"
						}
					],
					"stateMutability": "view",
					"type": "function"
				},
				{
					"inputs": [],
					"name": "retrievePaidMsg",
					"outputs": [
						{
							"internalType": "string",
							"name": "",
							"type": "string"
						}
					],
					"stateMutability": "view",
					"type": "function"
				},
				{
					"inputs": [
						{
							"internalType": "string",
							"name": "str",
							"type": "string"
						}
					],
					"name": "store",
					"outputs": [],
					"stateMutability": "nonpayable",
					"type": "function"
				},
				{
					"inputs": [
						{
							"internalType": "string",
							"name": "str",
							"type": "string"
						}
					],
					"name": "storePaidMsg",
					"outputs": [],
					"stateMutability": "payable",
					"type": "function"
				}
			],
			"devdoc": {
				"kind": "dev",
				"methods": {},
				"version": 1
			},
			"evm": {
				"assembly": "    /* \"contracts/1_Storage.sol\":69:485  contract Storage {... */\n  mstore(0x40, 0x80)\n  callvalue\n  dup1\n  iszero\n  tag_1\n  jumpi\n  0x00\n  dup1\n  revert\ntag_1:\n  pop\n  dataSize(sub_0)\n  dup1\n  dataOffset(sub_0)\n  0x00\n  codecopy\n  0x00\n  return\nstop\n\nsub_0: assembly {\n        /* \"contracts/1_Storage.sol\":69:485  contract Storage {... */\n      mstore(0x40, 0x80)\n      jumpi(tag_1, lt(calldatasize, 0x04))\n      shr(0xe0, calldataload(0x00))\n      dup1\n      0x131a0680\n      eq\n      tag_2\n      jumpi\n      dup1\n      0xc105788f\n      eq\n      tag_3\n      jumpi\n      dup1\n      0xe21f37ce\n      eq\n      tag_4\n      jumpi\n      dup1\n      0xf2f1dcbc\n      eq\n      tag_5\n      jumpi\n    tag_1:\n      0x00\n      dup1\n      revert\n        /* \"contracts/1_Storage.sol\":144:215  function store(string memory str) public {... */\n    tag_2:\n      callvalue\n      dup1\n      iszero\n      tag_6\n      jumpi\n      0x00\n      dup1\n      revert\n    tag_6:\n      pop\n      tag_7\n      tag_8\n      calldatasize\n      0x04\n      tag_9\n      jump\t// in\n    tag_8:\n      tag_10\n      jump\t// in\n    tag_7:\n      stop\n        /* \"contracts/1_Storage.sol\":386:483  function retrievePaidMsg() public view returns (string memory){... */\n    tag_3:\n      callvalue\n      dup1\n      iszero\n      tag_11\n      jumpi\n      0x00\n      dup1\n      revert\n    tag_11:\n      pop\n      tag_12\n      tag_13\n      jump\t// in\n    tag_12:\n      mload(0x40)\n      tag_14\n      swap2\n      swap1\n      tag_15\n      jump\t// in\n    tag_14:\n      mload(0x40)\n      dup1\n      swap2\n      sub\n      swap1\n      return\n        /* \"contracts/1_Storage.sol\":92:113  string public message */\n    tag_4:\n      callvalue\n      dup1\n      iszero\n      tag_16\n      jumpi\n      0x00\n      dup1\n      revert\n    tag_16:\n      pop\n      tag_12\n      tag_18\n      jump\t// in\n        /* \"contracts/1_Storage.sol\":220:381  function storePaidMsg(string memory str) public payable {... */\n    tag_5:\n      tag_7\n      tag_21\n      calldatasize\n      0x04\n      tag_9\n      jump\t// in\n    tag_21:\n      tag_22\n      jump\t// in\n        /* \"contracts/1_Storage.sol\":144:215  function store(string memory str) public {... */\n    tag_10:\n        /* \"contracts/1_Storage.sol\":195:202  message */\n      0x00\n        /* \"contracts/1_Storage.sol\":195:208  message = str */\n      tag_24\n        /* \"contracts/1_Storage.sol\":205:208  str */\n      dup3\n        /* \"contracts/1_Storage.sol\":195:202  message */\n      dup3\n        /* \"contracts/1_Storage.sol\":195:208  message = str */\n      tag_25\n      jump\t// in\n    tag_24:\n      pop\n        /* \"contracts/1_Storage.sol\":144:215  function store(string memory str) public {... */\n      pop\n      jump\t// out\n        /* \"contracts/1_Storage.sol\":386:483  function retrievePaidMsg() public view returns (string memory){... */\n    tag_13:\n        /* \"contracts/1_Storage.sol\":434:447  string memory */\n      0x60\n        /* \"contracts/1_Storage.sol\":465:476  paidMessage */\n      0x01\n        /* \"contracts/1_Storage.sol\":458:476  return paidMessage */\n      dup1\n      sload\n      tag_27\n      swap1\n      tag_28\n      jump\t// in\n    tag_27:\n      dup1\n      0x1f\n      add\n      0x20\n      dup1\n      swap2\n      div\n      mul\n      0x20\n      add\n      mload(0x40)\n      swap1\n      dup2\n      add\n      0x40\n      mstore\n      dup1\n      swap3\n      swap2\n      swap1\n      dup2\n      dup2\n      mstore\n      0x20\n      add\n      dup3\n      dup1\n      sload\n      tag_29\n      swap1\n      tag_28\n      jump\t// in\n    tag_29:\n      dup1\n      iszero\n      tag_30\n      jumpi\n      dup1\n      0x1f\n      lt\n      tag_31\n      jumpi\n      0x0100\n      dup1\n      dup4\n      sload\n      div\n      mul\n      dup4\n      mstore\n      swap2\n      0x20\n      add\n      swap2\n      jump(tag_30)\n    tag_31:\n      dup3\n      add\n      swap2\n      swap1\n      0x00\n      mstore\n      keccak256(0x00, 0x20)\n      swap1\n    tag_32:\n      dup2\n      sload\n      dup2\n      mstore\n      swap1\n      0x01\n      add\n      swap1\n      0x20\n      add\n      dup1\n      dup4\n      gt\n      tag_32\n      jumpi\n      dup3\n      swap1\n      sub\n      0x1f\n      and\n      dup3\n      add\n      swap2\n    tag_30:\n      pop\n      pop\n      pop\n      pop\n      pop\n      swap1\n      pop\n        /* \"contracts/1_Storage.sol\":386:483  function retrievePaidMsg() public view returns (string memory){... */\n      swap1\n      jump\t// out\n        /* \"contracts/1_Storage.sol\":92:113  string public message */\n    tag_18:\n      0x00\n      dup1\n      sload\n      tag_33\n      swap1\n      tag_28\n      jump\t// in\n    tag_33:\n      dup1\n      0x1f\n      add\n      0x20\n      dup1\n      swap2\n      div\n      mul\n      0x20\n      add\n      mload(0x40)\n      swap1\n      dup2\n      add\n      0x40\n      mstore\n      dup1\n      swap3\n      swap2\n      swap1\n      dup2\n      dup2\n      mstore\n      0x20\n      add\n      dup3\n      dup1\n      sload\n      tag_34\n      swap1\n      tag_28\n      jump\t// in\n    tag_34:\n      dup1\n      iszero\n      tag_35\n      jumpi\n      dup1\n      0x1f\n      lt\n      tag_36\n      jumpi\n      0x0100\n      dup1\n      dup4\n      sload\n      div\n      mul\n      dup4\n      mstore\n      swap2\n      0x20\n      add\n      swap2\n      jump(tag_35)\n    tag_36:\n      dup3\n      add\n      swap2\n      swap1\n      0x00\n      mstore\n      keccak256(0x00, 0x20)\n      swap1\n    tag_37:\n      dup2\n      sload\n      dup2\n      mstore\n      swap1\n      0x01\n      add\n      swap1\n      0x20\n      add\n      dup1\n      dup4\n      gt\n      tag_37\n      jumpi\n      dup3\n      swap1\n      sub\n      0x1f\n      and\n      dup3\n      add\n      swap2\n    tag_35:\n      pop\n      pop\n      pop\n      pop\n      pop\n      dup2\n      jump\t// out\n        /* \"contracts/1_Storage.sol\":220:381  function storePaidMsg(string memory str) public payable {... */\n    tag_22:\n        /* \"contracts/1_Storage.sol\":294:303  msg.value */\n      callvalue\n        /* \"contracts/1_Storage.sol\":307:320  0.00001 ether */\n      0x09184e72a000\n        /* \"contracts/1_Storage.sol\":294:320  msg.value == 0.00001 ether */\n      eq\n        /* \"contracts/1_Storage.sol\":286:347  require(msg.value == 0.00001 ether, \"Error, Not enough fund\") */\n      tag_39\n      jumpi\n      mload(0x40)\n      shl(0xe5, 0x461bcd)\n      dup2\n      mstore\n        /* \"#utility.yul\":4417:4419   */\n      0x20\n        /* \"contracts/1_Storage.sol\":286:347  require(msg.value == 0.00001 ether, \"Error, Not enough fund\") */\n      0x04\n      dup3\n      add\n        /* \"#utility.yul\":4399:4420   */\n      mstore\n        /* \"#utility.yul\":4456:4458   */\n      0x16\n        /* \"#utility.yul\":4436:4454   */\n      0x24\n      dup3\n      add\n        /* \"#utility.yul\":4429:4459   */\n      mstore\n      shl(0x52, 0x115c9c9bdc8b08139bdd08195b9bdd59da08199d5b99)\n        /* \"#utility.yul\":4475:4493   */\n      0x44\n      dup3\n      add\n        /* \"#utility.yul\":4468:4520   */\n      mstore\n        /* \"#utility.yul\":4537:4555   */\n      0x64\n      add\n        /* \"contracts/1_Storage.sol\":286:347  require(msg.value == 0.00001 ether, \"Error, Not enough fund\") */\n      mload(0x40)\n      dup1\n      swap2\n      sub\n      swap1\n      revert\n    tag_39:\n        /* \"contracts/1_Storage.sol\":357:368  paidMessage */\n      0x01\n        /* \"contracts/1_Storage.sol\":357:374  paidMessage = str */\n      tag_24\n        /* \"contracts/1_Storage.sol\":371:374  str */\n      dup3\n        /* \"contracts/1_Storage.sol\":357:368  paidMessage */\n      dup3\n        /* \"contracts/1_Storage.sol\":357:374  paidMessage = str */\n      tag_25\n      jump\t// in\n        /* \"#utility.yul\":14:141   */\n    tag_43:\n        /* \"#utility.yul\":75:85   */\n      0x4e487b71\n        /* \"#utility.yul\":70:73   */\n      0xe0\n        /* \"#utility.yul\":66:86   */\n      shl\n        /* \"#utility.yul\":63:64   */\n      0x00\n        /* \"#utility.yul\":56:87   */\n      mstore\n        /* \"#utility.yul\":106:110   */\n      0x41\n        /* \"#utility.yul\":103:104   */\n      0x04\n        /* \"#utility.yul\":96:111   */\n      mstore\n        /* \"#utility.yul\":130:134   */\n      0x24\n        /* \"#utility.yul\":127:128   */\n      0x00\n        /* \"#utility.yul\":120:135   */\n      revert\n        /* \"#utility.yul\":146:1068   */\n    tag_9:\n        /* \"#utility.yul\":215:221   */\n      0x00\n        /* \"#utility.yul\":268:270   */\n      0x20\n        /* \"#utility.yul\":256:265   */\n      dup3\n        /* \"#utility.yul\":247:254   */\n      dup5\n        /* \"#utility.yul\":243:266   */\n      sub\n        /* \"#utility.yul\":239:271   */\n      slt\n        /* \"#utility.yul\":236:288   */\n      iszero\n      tag_50\n      jumpi\n        /* \"#utility.yul\":284:285   */\n      0x00\n        /* \"#utility.yul\":281:282   */\n      dup1\n        /* \"#utility.yul\":274:286   */\n      revert\n        /* \"#utility.yul\":236:288   */\n    tag_50:\n        /* \"#utility.yul\":324:333   */\n      dup2\n        /* \"#utility.yul\":311:334   */\n      calldataload\n        /* \"#utility.yul\":353:371   */\n      0xffffffffffffffff\n        /* \"#utility.yul\":394:396   */\n      dup1\n        /* \"#utility.yul\":386:392   */\n      dup3\n        /* \"#utility.yul\":383:397   */\n      gt\n        /* \"#utility.yul\":380:414   */\n      iszero\n      tag_51\n      jumpi\n        /* \"#utility.yul\":410:411   */\n      0x00\n        /* \"#utility.yul\":407:408   */\n      dup1\n        /* \"#utility.yul\":400:412   */\n      revert\n        /* \"#utility.yul\":380:414   */\n    tag_51:\n        /* \"#utility.yul\":448:454   */\n      dup2\n        /* \"#utility.yul\":437:446   */\n      dup5\n        /* \"#utility.yul\":433:455   */\n      add\n        /* \"#utility.yul\":423:455   */\n      swap2\n      pop\n        /* \"#utility.yul\":493:500   */\n      dup5\n        /* \"#utility.yul\":486:490   */\n      0x1f\n        /* \"#utility.yul\":482:484   */\n      dup4\n        /* \"#utility.yul\":478:491   */\n      add\n        /* \"#utility.yul\":474:501   */\n      slt\n        /* \"#utility.yul\":464:519   */\n      tag_52\n      jumpi\n        /* \"#utility.yul\":515:516   */\n      0x00\n        /* \"#utility.yul\":512:513   */\n      dup1\n        /* \"#utility.yul\":505:517   */\n      revert\n        /* \"#utility.yul\":464:519   */\n    tag_52:\n        /* \"#utility.yul\":551:553   */\n      dup2\n        /* \"#utility.yul\":538:554   */\n      calldataload\n        /* \"#utility.yul\":573:575   */\n      dup2\n        /* \"#utility.yul\":569:571   */\n      dup2\n        /* \"#utility.yul\":566:576   */\n      gt\n        /* \"#utility.yul\":563:599   */\n      iszero\n      tag_54\n      jumpi\n        /* \"#utility.yul\":579:597   */\n      tag_54\n      tag_43\n      jump\t// in\n    tag_54:\n        /* \"#utility.yul\":654:656   */\n      0x40\n        /* \"#utility.yul\":648:657   */\n      mload\n        /* \"#utility.yul\":622:624   */\n      0x1f\n        /* \"#utility.yul\":708:721   */\n      dup3\n      add\n      not(0x1f)\n        /* \"#utility.yul\":704:726   */\n      swap1\n      dup2\n      and\n        /* \"#utility.yul\":728:730   */\n      0x3f\n        /* \"#utility.yul\":700:731   */\n      add\n        /* \"#utility.yul\":696:736   */\n      and\n        /* \"#utility.yul\":684:737   */\n      dup2\n      add\n      swap1\n        /* \"#utility.yul\":752:770   */\n      dup4\n      dup3\n      gt\n        /* \"#utility.yul\":772:794   */\n      dup2\n      dup4\n      lt\n        /* \"#utility.yul\":749:795   */\n      or\n        /* \"#utility.yul\":746:818   */\n      iszero\n      tag_56\n      jumpi\n        /* \"#utility.yul\":798:816   */\n      tag_56\n      tag_43\n      jump\t// in\n    tag_56:\n        /* \"#utility.yul\":838:848   */\n      dup2\n        /* \"#utility.yul\":834:836   */\n      0x40\n        /* \"#utility.yul\":827:849   */\n      mstore\n        /* \"#utility.yul\":873:875   */\n      dup3\n        /* \"#utility.yul\":865:871   */\n      dup2\n        /* \"#utility.yul\":858:876   */\n      mstore\n        /* \"#utility.yul\":913:920   */\n      dup8\n        /* \"#utility.yul\":908:910   */\n      0x20\n        /* \"#utility.yul\":903:905   */\n      dup5\n        /* \"#utility.yul\":899:901   */\n      dup8\n        /* \"#utility.yul\":895:906   */\n      add\n        /* \"#utility.yul\":891:911   */\n      add\n        /* \"#utility.yul\":888:921   */\n      gt\n        /* \"#utility.yul\":885:938   */\n      iszero\n      tag_57\n      jumpi\n        /* \"#utility.yul\":934:935   */\n      0x00\n        /* \"#utility.yul\":931:932   */\n      dup1\n        /* \"#utility.yul\":924:936   */\n      revert\n        /* \"#utility.yul\":885:938   */\n    tag_57:\n        /* \"#utility.yul\":990:992   */\n      dup3\n        /* \"#utility.yul\":985:987   */\n      0x20\n        /* \"#utility.yul\":981:983   */\n      dup7\n        /* \"#utility.yul\":977:988   */\n      add\n        /* \"#utility.yul\":972:974   */\n      0x20\n        /* \"#utility.yul\":964:970   */\n      dup4\n        /* \"#utility.yul\":960:975   */\n      add\n        /* \"#utility.yul\":947:993   */\n      calldatacopy\n        /* \"#utility.yul\":1035:1036   */\n      0x00\n        /* \"#utility.yul\":1013:1028   */\n      swap3\n      dup2\n      add\n        /* \"#utility.yul\":1030:1032   */\n      0x20\n        /* \"#utility.yul\":1009:1033   */\n      add\n        /* \"#utility.yul\":1002:1037   */\n      swap3\n      swap1\n      swap3\n      mstore\n      pop\n        /* \"#utility.yul\":1017:1023   */\n      swap6\n        /* \"#utility.yul\":146:1068   */\n      swap5\n      pop\n      pop\n      pop\n      pop\n      pop\n      jump\t// out\n        /* \"#utility.yul\":1073:1621   */\n    tag_15:\n        /* \"#utility.yul\":1185:1189   */\n      0x00\n        /* \"#utility.yul\":1214:1216   */\n      0x20\n        /* \"#utility.yul\":1243:1245   */\n      dup1\n        /* \"#utility.yul\":1232:1241   */\n      dup4\n        /* \"#utility.yul\":1225:1246   */\n      mstore\n        /* \"#utility.yul\":1275:1281   */\n      dup4\n        /* \"#utility.yul\":1269:1282   */\n      mload\n        /* \"#utility.yul\":1318:1324   */\n      dup1\n        /* \"#utility.yul\":1313:1315   */\n      dup3\n        /* \"#utility.yul\":1302:1311   */\n      dup6\n        /* \"#utility.yul\":1298:1316   */\n      add\n        /* \"#utility.yul\":1291:1325   */\n      mstore\n        /* \"#utility.yul\":1343:1344   */\n      0x00\n        /* \"#utility.yul\":1353:1493   */\n    tag_59:\n        /* \"#utility.yul\":1367:1373   */\n      dup2\n        /* \"#utility.yul\":1364:1365   */\n      dup2\n        /* \"#utility.yul\":1361:1374   */\n      lt\n        /* \"#utility.yul\":1353:1493   */\n      iszero\n      tag_61\n      jumpi\n        /* \"#utility.yul\":1462:1476   */\n      dup6\n      dup2\n      add\n        /* \"#utility.yul\":1458:1481   */\n      dup4\n      add\n        /* \"#utility.yul\":1452:1482   */\n      mload\n        /* \"#utility.yul\":1428:1445   */\n      dup6\n      dup3\n      add\n        /* \"#utility.yul\":1447:1449   */\n      0x40\n        /* \"#utility.yul\":1424:1450   */\n      add\n        /* \"#utility.yul\":1417:1483   */\n      mstore\n        /* \"#utility.yul\":1382:1392   */\n      dup3\n      add\n        /* \"#utility.yul\":1353:1493   */\n      jump(tag_59)\n    tag_61:\n        /* \"#utility.yul\":1357:1360   */\n      pop\n        /* \"#utility.yul\":1542:1543   */\n      0x00\n        /* \"#utility.yul\":1537:1539   */\n      0x40\n        /* \"#utility.yul\":1528:1534   */\n      dup3\n        /* \"#utility.yul\":1517:1526   */\n      dup7\n        /* \"#utility.yul\":1513:1535   */\n      add\n        /* \"#utility.yul\":1509:1540   */\n      add\n        /* \"#utility.yul\":1502:1544   */\n      mstore\n        /* \"#utility.yul\":1612:1614   */\n      0x40\n        /* \"#utility.yul\":1605:1607   */\n      0x1f\n        /* \"#utility.yul\":1601:1608   */\n      not\n        /* \"#utility.yul\":1596:1598   */\n      0x1f\n        /* \"#utility.yul\":1588:1594   */\n      dup4\n        /* \"#utility.yul\":1584:1599   */\n      add\n        /* \"#utility.yul\":1580:1609   */\n      and\n        /* \"#utility.yul\":1569:1578   */\n      dup6\n        /* \"#utility.yul\":1565:1610   */\n      add\n        /* \"#utility.yul\":1561:1615   */\n      add\n        /* \"#utility.yul\":1553:1615   */\n      swap3\n      pop\n      pop\n      pop\n        /* \"#utility.yul\":1073:1621   */\n      swap3\n      swap2\n      pop\n      pop\n      jump\t// out\n        /* \"#utility.yul\":1626:2006   */\n    tag_28:\n        /* \"#utility.yul\":1705:1706   */\n      0x01\n        /* \"#utility.yul\":1701:1713   */\n      dup2\n      dup2\n      shr\n      swap1\n        /* \"#utility.yul\":1748:1760   */\n      dup3\n      and\n      dup1\n        /* \"#utility.yul\":1769:1830   */\n      tag_63\n      jumpi\n        /* \"#utility.yul\":1823:1827   */\n      0x7f\n        /* \"#utility.yul\":1815:1821   */\n      dup3\n        /* \"#utility.yul\":1811:1828   */\n      and\n        /* \"#utility.yul\":1801:1828   */\n      swap2\n      pop\n        /* \"#utility.yul\":1769:1830   */\n    tag_63:\n        /* \"#utility.yul\":1876:1878   */\n      0x20\n        /* \"#utility.yul\":1868:1874   */\n      dup3\n        /* \"#utility.yul\":1865:1879   */\n      lt\n        /* \"#utility.yul\":1845:1863   */\n      dup2\n        /* \"#utility.yul\":1842:1880   */\n      sub\n        /* \"#utility.yul\":1839:2000   */\n      tag_64\n      jumpi\n        /* \"#utility.yul\":1922:1932   */\n      0x4e487b71\n        /* \"#utility.yul\":1917:1920   */\n      0xe0\n        /* \"#utility.yul\":1913:1933   */\n      shl\n        /* \"#utility.yul\":1910:1911   */\n      0x00\n        /* \"#utility.yul\":1903:1934   */\n      mstore\n        /* \"#utility.yul\":1957:1961   */\n      0x22\n        /* \"#utility.yul\":1954:1955   */\n      0x04\n        /* \"#utility.yul\":1947:1962   */\n      mstore\n        /* \"#utility.yul\":1985:1989   */\n      0x24\n        /* \"#utility.yul\":1982:1983   */\n      0x00\n        /* \"#utility.yul\":1975:1990   */\n      revert\n        /* \"#utility.yul\":1839:2000   */\n    tag_64:\n      pop\n        /* \"#utility.yul\":1626:2006   */\n      swap2\n      swap1\n      pop\n      jump\t// out\n        /* \"#utility.yul\":2137:2682   */\n    tag_45:\n        /* \"#utility.yul\":2239:2241   */\n      0x1f\n        /* \"#utility.yul\":2234:2237   */\n      dup3\n        /* \"#utility.yul\":2231:2242   */\n      gt\n        /* \"#utility.yul\":2228:2676   */\n      iszero\n      tag_67\n      jumpi\n        /* \"#utility.yul\":2275:2276   */\n      0x00\n        /* \"#utility.yul\":2300:2305   */\n      dup2\n        /* \"#utility.yul\":2296:2298   */\n      dup2\n        /* \"#utility.yul\":2289:2306   */\n      mstore\n        /* \"#utility.yul\":2345:2349   */\n      0x20\n        /* \"#utility.yul\":2341:2343   */\n      dup2\n        /* \"#utility.yul\":2331:2350   */\n      keccak256\n        /* \"#utility.yul\":2415:2417   */\n      0x1f\n        /* \"#utility.yul\":2403:2413   */\n      dup6\n        /* \"#utility.yul\":2399:2418   */\n      add\n        /* \"#utility.yul\":2396:2397   */\n      0x05\n        /* \"#utility.yul\":2392:2419   */\n      shr\n        /* \"#utility.yul\":2386:2390   */\n      dup2\n        /* \"#utility.yul\":2382:2420   */\n      add\n        /* \"#utility.yul\":2451:2455   */\n      0x20\n        /* \"#utility.yul\":2439:2449   */\n      dup7\n        /* \"#utility.yul\":2436:2456   */\n      lt\n        /* \"#utility.yul\":2433:2480   */\n      iszero\n      tag_68\n      jumpi\n      pop\n        /* \"#utility.yul\":2474:2478   */\n      dup1\n        /* \"#utility.yul\":2433:2480   */\n    tag_68:\n        /* \"#utility.yul\":2529:2531   */\n      0x1f\n        /* \"#utility.yul\":2524:2527   */\n      dup6\n        /* \"#utility.yul\":2520:2532   */\n      add\n        /* \"#utility.yul\":2517:2518   */\n      0x05\n        /* \"#utility.yul\":2513:2533   */\n      shr\n        /* \"#utility.yul\":2507:2511   */\n      dup3\n        /* \"#utility.yul\":2503:2534   */\n      add\n        /* \"#utility.yul\":2493:2534   */\n      swap2\n      pop\n        /* \"#utility.yul\":2584:2666   */\n    tag_69:\n        /* \"#utility.yul\":2602:2604   */\n      dup2\n        /* \"#utility.yul\":2595:2600   */\n      dup2\n        /* \"#utility.yul\":2592:2605   */\n      lt\n        /* \"#utility.yul\":2584:2666   */\n      iszero\n      tag_71\n      jumpi\n        /* \"#utility.yul\":2647:2664   */\n      dup3\n      dup2\n      sstore\n        /* \"#utility.yul\":2628:2629   */\n      0x01\n        /* \"#utility.yul\":2617:2630   */\n      add\n        /* \"#utility.yul\":2584:2666   */\n      jump(tag_69)\n    tag_71:\n        /* \"#utility.yul\":2588:2591   */\n      pop\n      pop\n      pop\n        /* \"#utility.yul\":2228:2676   */\n    tag_67:\n        /* \"#utility.yul\":2137:2682   */\n      pop\n      pop\n      pop\n      jump\t// out\n        /* \"#utility.yul\":2858:4210   */\n    tag_25:\n        /* \"#utility.yul\":2984:2987   */\n      dup2\n        /* \"#utility.yul\":2978:2988   */\n      mload\n        /* \"#utility.yul\":3011:3029   */\n      0xffffffffffffffff\n        /* \"#utility.yul\":3003:3009   */\n      dup2\n        /* \"#utility.yul\":3000:3030   */\n      gt\n        /* \"#utility.yul\":2997:3053   */\n      iszero\n      tag_75\n      jumpi\n        /* \"#utility.yul\":3033:3051   */\n      tag_75\n      tag_43\n      jump\t// in\n    tag_75:\n        /* \"#utility.yul\":3062:3159   */\n      tag_76\n        /* \"#utility.yul\":3152:3158   */\n      dup2\n        /* \"#utility.yul\":3112:3150   */\n      tag_77\n        /* \"#utility.yul\":3144:3148   */\n      dup5\n        /* \"#utility.yul\":3138:3149   */\n      sload\n        /* \"#utility.yul\":3112:3150   */\n      tag_28\n      jump\t// in\n    tag_77:\n        /* \"#utility.yul\":3106:3110   */\n      dup5\n        /* \"#utility.yul\":3062:3159   */\n      tag_45\n      jump\t// in\n    tag_76:\n        /* \"#utility.yul\":3214:3218   */\n      0x20\n      dup1\n        /* \"#utility.yul\":3278:3280   */\n      0x1f\n        /* \"#utility.yul\":3267:3281   */\n      dup4\n      gt\n        /* \"#utility.yul\":3295:3296   */\n      0x01\n        /* \"#utility.yul\":3290:3953   */\n      dup2\n      eq\n      tag_79\n      jumpi\n        /* \"#utility.yul\":3997:3998   */\n      0x00\n        /* \"#utility.yul\":4014:4020   */\n      dup5\n        /* \"#utility.yul\":4011:4100   */\n      iszero\n      tag_80\n      jumpi\n      pop\n        /* \"#utility.yul\":4066:4085   */\n      dup6\n      dup4\n      add\n        /* \"#utility.yul\":4060:4086   */\n      mload\n        /* \"#utility.yul\":4011:4100   */\n    tag_80:\n      not(0x00)\n        /* \"#utility.yul\":2815:2816   */\n      0x03\n        /* \"#utility.yul\":2811:2822   */\n      dup7\n      swap1\n      shl\n        /* \"#utility.yul\":2807:2831   */\n      shr\n        /* \"#utility.yul\":2803:2832   */\n      not\n        /* \"#utility.yul\":2793:2833   */\n      and\n        /* \"#utility.yul\":2839:2840   */\n      0x01\n        /* \"#utility.yul\":2835:2846   */\n      dup6\n      swap1\n      shl\n        /* \"#utility.yul\":2790:2847   */\n      or\n        /* \"#utility.yul\":4113:4194   */\n      dup6\n      sstore\n        /* \"#utility.yul\":3260:4204   */\n      jump(tag_71)\n        /* \"#utility.yul\":3290:3953   */\n    tag_79:\n        /* \"#utility.yul\":2084:2085   */\n      0x00\n        /* \"#utility.yul\":2077:2091   */\n      dup6\n      dup2\n      mstore\n        /* \"#utility.yul\":2121:2125   */\n      0x20\n        /* \"#utility.yul\":2108:2126   */\n      dup2\n      keccak256\n      not(0x1f)\n        /* \"#utility.yul\":3326:3346   */\n      dup7\n      and\n      swap2\n        /* \"#utility.yul\":3444:3680   */\n    tag_83:\n        /* \"#utility.yul\":3458:3465   */\n      dup3\n        /* \"#utility.yul\":3455:3456   */\n      dup2\n        /* \"#utility.yul\":3452:3466   */\n      lt\n        /* \"#utility.yul\":3444:3680   */\n      iszero\n      tag_85\n      jumpi\n        /* \"#utility.yul\":3547:3566   */\n      dup9\n      dup7\n      add\n        /* \"#utility.yul\":3541:3567   */\n      mload\n        /* \"#utility.yul\":3526:3568   */\n      dup3\n      sstore\n        /* \"#utility.yul\":3639:3666   */\n      swap5\n      dup5\n      add\n      swap5\n        /* \"#utility.yul\":3607:3608   */\n      0x01\n        /* \"#utility.yul\":3595:3609   */\n      swap1\n      swap2\n      add\n      swap1\n        /* \"#utility.yul\":3474:3493   */\n      dup5\n      add\n        /* \"#utility.yul\":3444:3680   */\n      jump(tag_83)\n    tag_85:\n        /* \"#utility.yul\":3448:3451   */\n      pop\n        /* \"#utility.yul\":3708:3714   */\n      dup6\n        /* \"#utility.yul\":3699:3706   */\n      dup3\n        /* \"#utility.yul\":3696:3715   */\n      lt\n        /* \"#utility.yul\":3693:3894   */\n      iszero\n      tag_86\n      jumpi\n        /* \"#utility.yul\":3769:3788   */\n      dup8\n      dup6\n      add\n        /* \"#utility.yul\":3763:3789   */\n      mload\n      not(0x00)\n        /* \"#utility.yul\":3852:3853   */\n      0x03\n        /* \"#utility.yul\":3848:3862   */\n      dup9\n      swap1\n      shl\n        /* \"#utility.yul\":3864:3867   */\n      0xf8\n        /* \"#utility.yul\":3844:3868   */\n      and\n        /* \"#utility.yul\":3840:3877   */\n      shr\n        /* \"#utility.yul\":3836:3878   */\n      not\n        /* \"#utility.yul\":3821:3879   */\n      and\n        /* \"#utility.yul\":3806:3880   */\n      dup2\n      sstore\n        /* \"#utility.yul\":3693:3894   */\n    tag_86:\n      pop\n      pop\n      pop\n      pop\n      pop\n        /* \"#utility.yul\":3940:3941   */\n      0x01\n        /* \"#utility.yul\":3924:3938   */\n      swap1\n      dup2\n      shl\n        /* \"#utility.yul\":3920:3942   */\n      add\n        /* \"#utility.yul\":3907:3943   */\n      swap1\n      sstore\n      pop\n        /* \"#utility.yul\":2858:4210   */\n      jump\t// out\n\n    auxdata: 0xa264697066735822122001d5126d7803638a07a88d5c20463b00401f23d9435952e2707e915182cd7d5864736f6c63430008110033\n}\n",
				"bytecode": {
					"linkReferences": {},
					"object": "608060405234801561001057600080fd5b506104db806100206000396000f3fe60806040526004361061003f5760003560e01c8063131a068014610044578063c105788f14610066578063e21f37ce14610091578063f2f1dcbc146100a6575b600080fd5b34801561005057600080fd5b5061006461005f36600461025d565b6100b9565b005b34801561007257600080fd5b5061007b6100c9565b604051610088919061030e565b60405180910390f35b34801561009d57600080fd5b5061007b61015b565b6100646100b436600461025d565b6101e9565b60006100c582826103e5565b5050565b6060600180546100d89061035c565b80601f01602080910402602001604051908101604052809291908181526020018280546101049061035c565b80156101515780601f1061012657610100808354040283529160200191610151565b820191906000526020600020905b81548152906001019060200180831161013457829003601f168201915b5050505050905090565b600080546101689061035c565b80601f01602080910402602001604051908101604052809291908181526020018280546101949061035c565b80156101e15780601f106101b6576101008083540402835291602001916101e1565b820191906000526020600020905b8154815290600101906020018083116101c457829003601f168201915b505050505081565b346509184e72a0001461023b5760405162461bcd60e51b8152602060048201526016602482015275115c9c9bdc8b08139bdd08195b9bdd59da08199d5b9960521b604482015260640160405180910390fd5b60016100c582826103e5565b634e487b7160e01b600052604160045260246000fd5b60006020828403121561026f57600080fd5b813567ffffffffffffffff8082111561028757600080fd5b818401915084601f83011261029b57600080fd5b8135818111156102ad576102ad610247565b604051601f8201601f19908116603f011681019083821181831017156102d5576102d5610247565b816040528281528760208487010111156102ee57600080fd5b826020860160208301376000928101602001929092525095945050505050565b600060208083528351808285015260005b8181101561033b5785810183015185820160400152820161031f565b506000604082860101526040601f19601f8301168501019250505092915050565b600181811c9082168061037057607f821691505b60208210810361039057634e487b7160e01b600052602260045260246000fd5b50919050565b601f8211156103e057600081815260208120601f850160051c810160208610156103bd5750805b601f850160051c820191505b818110156103dc578281556001016103c9565b5050505b505050565b815167ffffffffffffffff8111156103ff576103ff610247565b6104138161040d845461035c565b84610396565b602080601f83116001811461044857600084156104305750858301515b600019600386901b1c1916600185901b1785556103dc565b600085815260208120601f198616915b8281101561047757888601518255948401946001909101908401610458565b50858210156104955787850151600019600388901b60f8161c191681555b5050505050600190811b0190555056fea264697066735822122001d5126d7803638a07a88d5c20463b00401f23d9435952e2707e915182cd7d5864736f6c63430008110033",
					"opcodes": "PUSH1 0x80 PUSH1 0x40 MSTORE CALLVALUE DUP1 ISZERO PUSH2 0x10 JUMPI PUSH1 0x0 DUP1 REVERT JUMPDEST POP PUSH2 0x4DB DUP1 PUSH2 0x20 PUSH1 0x0 CODECOPY PUSH1 0x0 RETURN INVALID PUSH1 0x80 PUSH1 0x40 MSTORE PUSH1 0x4 CALLDATASIZE LT PUSH2 0x3F JUMPI PUSH1 0x0 CALLDATALOAD PUSH1 0xE0 SHR DUP1 PUSH4 0x131A0680 EQ PUSH2 0x44 JUMPI DUP1 PUSH4 0xC105788F EQ PUSH2 0x66 JUMPI DUP1 PUSH4 0xE21F37CE EQ PUSH2 0x91 JUMPI DUP1 PUSH4 0xF2F1DCBC EQ PUSH2 0xA6 JUMPI JUMPDEST PUSH1 0x0 DUP1 REVERT JUMPDEST CALLVALUE DUP1 ISZERO PUSH2 0x50 JUMPI PUSH1 0x0 DUP1 REVERT JUMPDEST POP PUSH2 0x64 PUSH2 0x5F CALLDATASIZE PUSH1 0x4 PUSH2 0x25D JUMP JUMPDEST PUSH2 0xB9 JUMP JUMPDEST STOP JUMPDEST CALLVALUE DUP1 ISZERO PUSH2 0x72 JUMPI PUSH1 0x0 DUP1 REVERT JUMPDEST POP PUSH2 0x7B PUSH2 0xC9 JUMP JUMPDEST PUSH1 0x40 MLOAD PUSH2 0x88 SWAP2 SWAP1 PUSH2 0x30E JUMP JUMPDEST PUSH1 0x40 MLOAD DUP1 SWAP2 SUB SWAP1 RETURN JUMPDEST CALLVALUE DUP1 ISZERO PUSH2 0x9D JUMPI PUSH1 0x0 DUP1 REVERT JUMPDEST POP PUSH2 0x7B PUSH2 0x15B JUMP JUMPDEST PUSH2 0x64 PUSH2 0xB4 CALLDATASIZE PUSH1 0x4 PUSH2 0x25D JUMP JUMPDEST PUSH2 0x1E9 JUMP JUMPDEST PUSH1 0x0 PUSH2 0xC5 DUP3 DUP3 PUSH2 0x3E5 JUMP JUMPDEST POP POP JUMP JUMPDEST PUSH1 0x60 PUSH1 0x1 DUP1 SLOAD PUSH2 0xD8 SWAP1 PUSH2 0x35C JUMP JUMPDEST DUP1 PUSH1 0x1F ADD PUSH1 0x20 DUP1 SWAP2 DIV MUL PUSH1 0x20 ADD PUSH1 0x40 MLOAD SWAP1 DUP2 ADD PUSH1 0x40 MSTORE DUP1 SWAP3 SWAP2 SWAP1 DUP2 DUP2 MSTORE PUSH1 0x20 ADD DUP3 DUP1 SLOAD PUSH2 0x104 SWAP1 PUSH2 0x35C JUMP JUMPDEST DUP1 ISZERO PUSH2 0x151 JUMPI DUP1 PUSH1 0x1F LT PUSH2 0x126 JUMPI PUSH2 0x100 DUP1 DUP4 SLOAD DIV MUL DUP4 MSTORE SWAP2 PUSH1 0x20 ADD SWAP2 PUSH2 0x151 JUMP JUMPDEST DUP3 ADD SWAP2 SWAP1 PUSH1 0x0 MSTORE PUSH1 0x20 PUSH1 0x0 KECCAK256 SWAP1 JUMPDEST DUP2 SLOAD DUP2 MSTORE SWAP1 PUSH1 0x1 ADD SWAP1 PUSH1 0x20 ADD DUP1 DUP4 GT PUSH2 0x134 JUMPI DUP3 SWAP1 SUB PUSH1 0x1F AND DUP3 ADD SWAP2 JUMPDEST POP POP POP POP POP SWAP1 POP SWAP1 JUMP JUMPDEST PUSH1 0x0 DUP1 SLOAD PUSH2 0x168 SWAP1 PUSH2 0x35C JUMP JUMPDEST DUP1 PUSH1 0x1F ADD PUSH1 0x20 DUP1 SWAP2 DIV MUL PUSH1 0x20 ADD PUSH1 0x40 MLOAD SWAP1 DUP2 ADD PUSH1 0x40 MSTORE DUP1 SWAP3 SWAP2 SWAP1 DUP2 DUP2 MSTORE PUSH1 0x20 ADD DUP3 DUP1 SLOAD PUSH2 0x194 SWAP1 PUSH2 0x35C JUMP JUMPDEST DUP1 ISZERO PUSH2 0x1E1 JUMPI DUP1 PUSH1 0x1F LT PUSH2 0x1B6 JUMPI PUSH2 0x100 DUP1 DUP4 SLOAD DIV MUL DUP4 MSTORE SWAP2 PUSH1 0x20 ADD SWAP2 PUSH2 0x1E1 JUMP JUMPDEST DUP3 ADD SWAP2 SWAP1 PUSH1 0x0 MSTORE PUSH1 0x20 PUSH1 0x0 KECCAK256 SWAP1 JUMPDEST DUP2 SLOAD DUP2 MSTORE SWAP1 PUSH1 0x1 ADD SWAP1 PUSH1 0x20 ADD DUP1 DUP4 GT PUSH2 0x1C4 JUMPI DUP3 SWAP1 SUB PUSH1 0x1F AND DUP3 ADD SWAP2 JUMPDEST POP POP POP POP POP DUP2 JUMP JUMPDEST CALLVALUE PUSH6 0x9184E72A000 EQ PUSH2 0x23B JUMPI PUSH1 0x40 MLOAD PUSH3 0x461BCD PUSH1 0xE5 SHL DUP2 MSTORE PUSH1 0x20 PUSH1 0x4 DUP3 ADD MSTORE PUSH1 0x16 PUSH1 0x24 DUP3 ADD MSTORE PUSH22 0x115C9C9BDC8B08139BDD08195B9BDD59DA08199D5B99 PUSH1 0x52 SHL PUSH1 0x44 DUP3 ADD MSTORE PUSH1 0x64 ADD PUSH1 0x40 MLOAD DUP1 SWAP2 SUB SWAP1 REVERT JUMPDEST PUSH1 0x1 PUSH2 0xC5 DUP3 DUP3 PUSH2 0x3E5 JUMP JUMPDEST PUSH4 0x4E487B71 PUSH1 0xE0 SHL PUSH1 0x0 MSTORE PUSH1 0x41 PUSH1 0x4 MSTORE PUSH1 0x24 PUSH1 0x0 REVERT JUMPDEST PUSH1 0x0 PUSH1 0x20 DUP3 DUP5 SUB SLT ISZERO PUSH2 0x26F JUMPI PUSH1 0x0 DUP1 REVERT JUMPDEST DUP2 CALLDATALOAD PUSH8 0xFFFFFFFFFFFFFFFF DUP1 DUP3 GT ISZERO PUSH2 0x287 JUMPI PUSH1 0x0 DUP1 REVERT JUMPDEST DUP2 DUP5 ADD SWAP2 POP DUP5 PUSH1 0x1F DUP4 ADD SLT PUSH2 0x29B JUMPI PUSH1 0x0 DUP1 REVERT JUMPDEST DUP2 CALLDATALOAD DUP2 DUP2 GT ISZERO PUSH2 0x2AD JUMPI PUSH2 0x2AD PUSH2 0x247 JUMP JUMPDEST PUSH1 0x40 MLOAD PUSH1 0x1F DUP3 ADD PUSH1 0x1F NOT SWAP1 DUP2 AND PUSH1 0x3F ADD AND DUP2 ADD SWAP1 DUP4 DUP3 GT DUP2 DUP4 LT OR ISZERO PUSH2 0x2D5 JUMPI PUSH2 0x2D5 PUSH2 0x247 JUMP JUMPDEST DUP2 PUSH1 0x40 MSTORE DUP3 DUP2 MSTORE DUP8 PUSH1 0x20 DUP5 DUP8 ADD ADD GT ISZERO PUSH2 0x2EE JUMPI PUSH1 0x0 DUP1 REVERT JUMPDEST DUP3 PUSH1 0x20 DUP7 ADD PUSH1 0x20 DUP4 ADD CALLDATACOPY PUSH1 0x0 SWAP3 DUP2 ADD PUSH1 0x20 ADD SWAP3 SWAP1 SWAP3 MSTORE POP SWAP6 SWAP5 POP POP POP POP POP JUMP JUMPDEST PUSH1 0x0 PUSH1 0x20 DUP1 DUP4 MSTORE DUP4 MLOAD DUP1 DUP3 DUP6 ADD MSTORE PUSH1 0x0 JUMPDEST DUP2 DUP2 LT ISZERO PUSH2 0x33B JUMPI DUP6 DUP2 ADD DUP4 ADD MLOAD DUP6 DUP3 ADD PUSH1 0x40 ADD MSTORE DUP3 ADD PUSH2 0x31F JUMP JUMPDEST POP PUSH1 0x0 PUSH1 0x40 DUP3 DUP7 ADD ADD MSTORE PUSH1 0x40 PUSH1 0x1F NOT PUSH1 0x1F DUP4 ADD AND DUP6 ADD ADD SWAP3 POP POP POP SWAP3 SWAP2 POP POP JUMP JUMPDEST PUSH1 0x1 DUP2 DUP2 SHR SWAP1 DUP3 AND DUP1 PUSH2 0x370 JUMPI PUSH1 0x7F DUP3 AND SWAP2 POP JUMPDEST PUSH1 0x20 DUP3 LT DUP2 SUB PUSH2 0x390 JUMPI PUSH4 0x4E487B71 PUSH1 0xE0 SHL PUSH1 0x0 MSTORE PUSH1 0x22 PUSH1 0x4 MSTORE PUSH1 0x24 PUSH1 0x0 REVERT JUMPDEST POP SWAP2 SWAP1 POP JUMP JUMPDEST PUSH1 0x1F DUP3 GT ISZERO PUSH2 0x3E0 JUMPI PUSH1 0x0 DUP2 DUP2 MSTORE PUSH1 0x20 DUP2 KECCAK256 PUSH1 0x1F DUP6 ADD PUSH1 0x5 SHR DUP2 ADD PUSH1 0x20 DUP7 LT ISZERO PUSH2 0x3BD JUMPI POP DUP1 JUMPDEST PUSH1 0x1F DUP6 ADD PUSH1 0x5 SHR DUP3 ADD SWAP2 POP JUMPDEST DUP2 DUP2 LT ISZERO PUSH2 0x3DC JUMPI DUP3 DUP2 SSTORE PUSH1 0x1 ADD PUSH2 0x3C9 JUMP JUMPDEST POP POP POP JUMPDEST POP POP POP JUMP JUMPDEST DUP2 MLOAD PUSH8 0xFFFFFFFFFFFFFFFF DUP2 GT ISZERO PUSH2 0x3FF JUMPI PUSH2 0x3FF PUSH2 0x247 JUMP JUMPDEST PUSH2 0x413 DUP2 PUSH2 0x40D DUP5 SLOAD PUSH2 0x35C JUMP JUMPDEST DUP5 PUSH2 0x396 JUMP JUMPDEST PUSH1 0x20 DUP1 PUSH1 0x1F DUP4 GT PUSH1 0x1 DUP2 EQ PUSH2 0x448 JUMPI PUSH1 0x0 DUP5 ISZERO PUSH2 0x430 JUMPI POP DUP6 DUP4 ADD MLOAD JUMPDEST PUSH1 0x0 NOT PUSH1 0x3 DUP7 SWAP1 SHL SHR NOT AND PUSH1 0x1 DUP6 SWAP1 SHL OR DUP6 SSTORE PUSH2 0x3DC JUMP JUMPDEST PUSH1 0x0 DUP6 DUP2 MSTORE PUSH1 0x20 DUP2 KECCAK256 PUSH1 0x1F NOT DUP7 AND SWAP2 JUMPDEST DUP3 DUP2 LT ISZERO PUSH2 0x477 JUMPI DUP9 DUP7 ADD MLOAD DUP3 SSTORE SWAP5 DUP5 ADD SWAP5 PUSH1 0x1 SWAP1 SWAP2 ADD SWAP1 DUP5 ADD PUSH2 0x458 JUMP JUMPDEST POP DUP6 DUP3 LT ISZERO PUSH2 0x495 JUMPI DUP8 DUP6 ADD MLOAD PUSH1 0x0 NOT PUSH1 0x3 DUP9 SWAP1 SHL PUSH1 0xF8 AND SHR NOT AND DUP2 SSTORE JUMPDEST POP POP POP POP POP PUSH1 0x1 SWAP1 DUP2 SHL ADD SWAP1 SSTORE POP JUMP INVALID LOG2 PUSH5 0x6970667358 0x22 SLT KECCAK256 ADD 0xD5 SLT PUSH14 0x7803638A07A88D5C20463B00401F 0x23 0xD9 NUMBER MSIZE MSTORE 0xE2 PUSH17 0x7E915182CD7D5864736F6C634300081100 CALLER "
				},
				"gasEstimates": {
					"creation": {
						"codeDepositCost": "248600",
						"executionCost": "287",
						"totalCost": "248887"
					},
					"external": {
						"message()": "infinite",
						"retrievePaidMsg()": "infinite",
						"store(string)": "infinite",
						"storePaidMsg(string)": "infinite"
					}
				},
				"methodIdentifiers": {
					"message()": "e21f37ce",
					"retrievePaidMsg()": "c105788f",
					"store(string)": "131a0680",
					"storePaidMsg(string)": "f2f1dcbc"
				}
			},
			"storageLayout": {
				"storage": [
					{
						"astId": 3,
						"contract": "contracts/1_Storage.sol:Storage",
						"label": "message",
						"offset": 0,
						"slot": "0",
						"type": "t_string_storage"
					},
					{
						"astId": 5,
						"contract": "contracts/1_Storage.sol:Storage",
						"label": "paidMessage",
						"offset": 0,
						"slot": "1",
						"type": "t_string_storage"
					}
				],
				"types": {
					"t_string_storage": {
						"encoding": "bytes",
						"label": "string",
						"numberOfBytes": "32"
					}
				}
			},
			"userdoc": {
				"kind": "user",
				"methods": {},
				"version": 1
			}
		}
	}
}